:100000000C9438000C9455000C9455000C946C041E
:100010000C9455000C9455000C9455000C948400DD
:100020000C9455000C9455000C9455000C945500FC
:100030000C9455000C9455000C9455000C945500EC
:100040000C9455000C9455000C9455000C945500DC
:100050000C9455000C9455000C945500BD000E01F5
:1000600017012001290132013B0144014D015601D4
:1000700011241FBECFEFD4E0DEBFCDBF11E0A0E062
:10008000B1E0E0E3FCE002C005900D92A430B107BE
:10009000D9F723E0A4E0B1E001C01D92A233B2077A
:1000A000E1F70E94CE020C9416060C94000086E044
:1000B00091E00E9409041F9906C08091EE008660BD
:1000C0008093EE0008958091EE0080668093EE00AC
:1000D00008958AE091E00E94090480918400909143
:1000E000850082312AE7920749F08432944F09F063
:1000F00008958091EC008093EC0008958091EC00CD
:1001000086608093EC0008951F920F920FB60F92B5
:1001100011242F933F934F935F936F937F938F930C
:100120009F93AF93BF93EF93FF938AE091E00E9478
:1001300038040E94E503FF91EF91BF91AF919F9129
:100140008F917F916F915F914F913F912F910F9080
:100150000FBE0F901F901895CF93DF9390E0FC0196
:10016000F097EA30F10528F082E090E0DF91CF913E
:100170000895E25DFF4F0C94AD0521E030E0E5E02D
:10018000F0E045E050E081E090E06230710509F474
:1001900035C10CF494C06430710509F40DC10CF440
:1001A000D0C06530710509F0C7C06091EE006F7076
:1001B0007091EE0082959295907F9827807F982786
:1001C000862B872B8093EE008091F3008F704295F1
:1001D0005295507F5427407F5427482B4093F3007B
:1001E0004091F8004F70CF0182959295907F9827AB
:1001F000807F9827842B8093F8008091FD008F707A
:1002000022953295307F3227207F3227282B20936A
:10021000FD0080E090E0DF91CF91089520E030E094
:10022000E1E0F0E041E050E080E090E0AECF21E09E
:1002300030E0EEE0F0E041E050E081E090E0A5CF7A
:1002400021E030E0EBE0F0E041E050E081E090E0E0
:100250009CCF20E030E0EBE0F0E045E050E080E0D3
:1002600090E093CF21E030E0EBE0F0E044E050E0BC
:1002700081E090E08ACF21E030E0EFE0F0E044E080
:1002800050E081E090E081CF20E030E0E1E0F0E07C
:1002900041E050E081E090E078CF21E030E0EFE015
:1002A000F0E045E050E081E090E06FCF21E030E009
:1002B000EBE0F0E045E050E081E090E066CF6115D2
:1002C000710509F4BDC061307105B1F56091EC00B4
:1002D0006F7082959295907F9827807F9827862BC4
:1002E0008093EC008091F1008F7042955295507F81
:1002F0005427407F5427482B4093F1004091F6004B
:100300004F70CF0182959295907F9827807F982794
:10031000842B8093F6008091FB008F70229532959C
:10032000307F3227207F3227282B2093FB0080E06C
:1003300090E0DF91CF91089581E090E0DF91CF913F
:1003400008957091ED007F70A091ED0082959295D7
:10035000907F9827807F9827EC01C72BBE016A2BDE
:100360006093ED008091F2008F7042955295507F1E
:100370005427407F5427482B4093F2004091F700C8
:100380004F70CF0182959295907F9827807F982714
:10039000842B8093F7008091FC008F70229532951A
:1003A000307F3227207F3227282B2093FC0080E0EB
:1003B00090E0DF91CF9108956091EE00607F7091A1
:1003C000EE00862B872B8093EE008091F300807FD8
:1003D000482B4093F3008091F800807FAF01482BB9
:1003E000CA018093F8008091FD00807F282B209324
:1003F000FD0080E090E0DF91CF9108956091ED00E5
:10040000607F7091ED00862B872B8093ED008091AB
:10041000F200807F482B4093F2008091F700807FAC
:10042000EF01C82BCE018093F7008091FC00807F04
:10043000282B2093FC0080E090E0DF91CF9108957D
:100440006091EC00607F862B8093EC008091F1003E
:10045000807F482B4093F1008091F600807FAF01B0
:10046000482BCA018093F6008091FB00807F282BE7
:100470002093FB0080E090E0DF91CF9108958F9270
:100480009F92AF92BF92CF92DF92EF92FF92CF9363
:10049000DF93C5E0D0E02AE0C22ED12CE12CF12C74
:1004A000A70196010E948E0549015A01862FBE01BF
:1004B000805D0E94AC00C501B4010E94D2040E947C
:1004C0000D050E949A04219758F7DF91CF91FF9074
:1004D000EF90DF90CF90BF90AF909F908F90089556
:1004E0004F925F926F927F928F929F92AF92BF9244
:1004F000CF92DF92EF92FF92412C512C32015301A7
:1005000042018FEF881A980AA80AB80A80E588166F
:1005100083EC9806A104B104A1F180FE28C081E01B
:1005200088169104A104B10411F183E088169104A6
:10053000A104B104F9F083E0C82ED12CE12CF12CF8
:100540000CC0D701C6010196A11DB11DC414D5046C
:10055000E604F70479F06C017D01C501B401A7013F
:1005600096010E948E05672B682B692B51F7240199
:100570003501C5CFC501B4010E943F0224013501F8
:10058000BECFFF90EF90DF90CF90BF90AF909F9045
:100590008F907F906F905F904F900895E1E6F0E02C
:1005A00080E88083108286E38093E50087E0809373
:1005B000E6008FE08093E70080EC8093E4008DE01C
:1005C000809381008AE091E00E94090486E091E036
:1005D0000E94090461E070E089E690E00E941B033C
:1005E00062E070E087E590E00E941B030E947002C9
:1005F00080E090E00895CF93DF9300D0CDB7DEB7D1
:100600009A838983809100019091010106960E944E
:10061000D505892B29F00F900F90DF91CF91089588
:1006200089819A81909301018093000161E070E0DB
:1006300006960E94F505CF93DF9300D0CDB7DEB7C5
:10064000F8942091040130910501232BD9F12091D8
:100650000201309103013A832983232B09F470C0EE
:10066000E981FA814481558150930301409302014D
:10067000918380837383628315821482CF010696EF
:100680000E94D505019709F468C0E981FA81369680
:1006900089819A8187599F4F918B808B938B828B15
:1006A000E0910E01F0910F01309709F44AC00480E7
:1006B000F581E02DF583E48378940F900F90DF911E
:1006C000CF9108952AEE31E0309382012093810189
:1006D00027E532E03093EF012093EE0124EC32E085
:1006E00030935C0220935B021092C9021092C80200
:1006F000279A2F9A15BEEF9AECE6F0E02081206849
:100700002083E0E8F0E0208120682083EFE6F0E03D
:1007100020812260208325E83EE1309389002093E8
:10072000880021E030E030930501209304012091FE
:100730000201309103013A832983232B09F090CFE2
:10074000FFCF29813A8130930F0120930E017894D5
:100750000F900F90DF91CF9108957894A0910001B0
:10076000B0910101ED91FC91119712968D919C91A0
:1007700013970995F8948091000190910101E091FF
:100780000201F09103013097A9F00480F581E02D7A
:10079000F583E48380910E0190910F010097A1F001
:1007A000FC012481358130930F0120930E010E94BA
:1007B000FB026BCF909303018093020180910E01A5
:1007C00090910F01009761F7FFCFF89480910E018F
:1007D00090910F01009791F0DC011496ED91FC913E
:1007E0001597F583E483FC012481358130930F0153
:1007F00020930E010E94FB027894089580910001DD
:100800009091010190930F0180930E01009759F789
:10081000FFCFFC01F89480819181892BE1F0A281C6
:10082000B3811097F1F01496ED91FC911597F58333
:10083000E48380910E0190910F01009759F0FC0123
:100840002481358130930F0120930E010E94FB0219
:1008500078940895FFCF81E090E09183808378942D
:100860000895809100019091010193838283E1CFEB
:10087000FC01F89482819381009709F1A0910E0107
:10088000B0910F011097F9F014960D90BC91A02D26
:100890000A2E1B2E15961C920E92112414978281FB
:1008A0009381009759F0DC0114962D913C91159796
:1008B000338322830E94FB0278940895FFCF118234
:1008C00010827894089520910001309101013093B5
:1008D0000F0120930E01E7CF1F920F920FB60F92D8
:1008E00011242F933F934F935F936F937F938F9335
:1008F0009F93AF93BF93EF93FF9383B180788093DF
:100900003103803831F086E091E00E9438040E9483
:10091000E503FF91EF91BF91AF919F918F917F91EF
:100920006F915F914F913F912F910F900FBE0F905C
:100930001F9018950E94A1046894B1110C94880529
:1009400008950E94550588F09F5798F0B92F992770
:10095000B751B0F0E1F0660F771F881F991F1AF0AA
:10096000BA95C9F714C0B13091F00E948705B1E083
:1009700008950C948705672F782F8827B85F39F082
:10098000B93FCCF3869577956795B395D9F73EF443
:1009900090958095709561957F4F8F4F9F4F0895EB
:1009A000E89409C097FB3EF4909580957095619509
:1009B0007F4F8F4F9F4F9923A9F0F92F96E9BB27BF
:1009C0009395F695879577956795B795F111F8CF3B
:1009D000FAF4BB0F11F460FF1BC06F5F7F4F8F4FA6
:1009E0009F4F16C0882311F096E911C0772321F09C
:1009F0009EE8872F762F05C0662371F096E8862F34
:100A000070E060E02AF09A95660F771F881FDAF78A
:100A1000880F9695879597F908950E946F0590F035
:100A20009F3748F4911116F00C94880560E070E04F
:100A300080E89FEB089526F41B16611D711D811D32
:100A40000C9424050C943F05882371F4772321F03E
:100A50009850872B762F07C0662311F499270DC075
:100A60009051862B70E060E02AF09A95660F771F10
:100A7000881FDAF7880F9695879597F908959F3F15
:100A800031F0915020F4879577956795B795880F49
:100A9000911D9695879597F9089557FD9058440FA5
:100AA000551F59F05F3F71F04795880F97FB991FCD
:100AB00061F09F3F79F0879508951216130614068A
:100AC000551FF2CF4695F1DF08C016161706180617
:100AD000991FF1CF869571056105089408950E94CC
:100AE0005505A0F0BEE7B91788F4BB279F3860F41E
:100AF0001616B11D672F782F8827985FF7CF869538
:100B000077956795B11D93959639C8F30895E89444
:100B1000BB2766277727CB0197F90895052E97FB0A
:100B20001EF400940E94A50557FD07D00E94B3054E
:100B300007FC03D04EF40C94A505509540953095D4
:100B400021953F4F4F4F5F4F089590958095709539
:100B500061957F4F8F4F9F4F0895EE0FFF1F0590B8
:100B6000F491E02D0994A1E21A2EAA1BBB1BFD01F2
:100B70000DC0AA1FBB1FEE1FFF1FA217B307E4077C
:100B8000F50720F0A21BB30BE40BF50B661F771FD4
:100B9000881F991F1A9469F76095709580959095B4
:100BA0009B01AC01BD01CF010895DC012D923D9266
:100BB0004D925D926D927D928D929D92AD92BD927D
:100BC000CD92DD92ED92FD920D931D93CD93DD9329
:100BD000FF91EF918DB78D938EB78D938FB78D93D6
:100BE000ED93FD93882799270994DC01CB0181308F
:100BF0009105811D2D903D904D905D906D907D9063
:100C00008D909D90AD90BD90CD90DD90ED90FD903C
:100C10000D911D91CD91DD91ED91FD910D90F89487
:100C2000FEBF0FBEEDBFED91FD910994F894FFCF8B
:040C300010017D0131
:00000001FF
